:020000040800F2
:10000000600A002005010008530F0008D10A00080B
:10001000510F0008D5010008971D000800000000DE
:10002000000000000000000000000000D9150008DA
:1000300041080008000000000D110008F11B000835
:100040001F0100081F0100081F0100081F01000810
:100050001F0100081F0100081F0100081F01000800
:100060001F0100081F0100081F0100081F010008F0
:100070001F0100081F0100081F0100081F010008E0
:100080001F0100081F0100081F0100087B1C000859
:10009000291D00081F0100081F0100081F0100089A
:1000A0001F0100081F0100081F0100081F010008B0
:1000B0001F0100081F0100081F0100081F010008A0
:1000C0001F0100081F0100081F0100081F01000890
:1000D0001F0100081F0100081F0100081F01000880
:1000E0001F0100081F010008791C0008DFF810D06C
:1000F00000F01AF800480047B11E0008AFF3008076
:10010000600A00200648804706480047FEE7FEE7F1
:10011000FEE7FEE7FEE7FEE7FEE7FEE7FEE7FEE7B7
:10012000F51B0008ED000008064C074D06E0E068EE
:1001300040F0010394E8070098471034AC42F6D32E
:10014000FFF7D8FF681F0008881F000870B58C18DB
:1001500010F8015B15F0070301D110F8013B2A11DB
:1001600006D110F8012B03E010F8016B01F8016BC8
:100170005B1EF9D12B0705D40023521E0DD401F8C4
:10018000013BFAE710F8013BCB1A921C03E013F88D
:10019000015B01F8015B521EF9D5A142D8D30020C2
:1001A00070BD10B578B14FF48054012805D00228F5
:1001B0000FD11021012001F0B5FA2146BDE8104011
:1001C000022001F067BA1021BDE81040012001F0C3
:1001D000A9BA10BDFEE7C1B2000A40EA012070478B
:1001E00070B5624B624C00205988A4F1400202E0D5
:1001F000155C2554401C0D468842F9D35C48626862
:1002000020301F2D4260A268826007D00220FFF7D5
:10021000C8FF00202060607B1A2223E0E17B2829B0
:1002200001D02A290CD1B4F81100E27C40BA0004B4
:1002300040EA0220227D10435860E08A40BA98606C
:100240004C4A2068904252D14B4A607B12689042DF
:1002500003D8A27B0AB1102A0DD90220FFF7A1FF13
:10026000607B2422052101F0F5FABDE870400021F1
:10027000012001F0D1BA252958D01ADC152971D0F6
:100280000DDC08296ED005DCB9B3032936D004296A
:100290002DD163E00A2965D0122928D132E01A391C
:1002A0000A2924D2DFE801F03632235E32232323E9
:1002B000233E8A2956D00EDC552953D006DC282946
:1002C0003CD02A2940D02F2911D143E05A2925D0EA
:1002D00088290CD146E0A82944D004DC8F2941D0DC
:1002E0009E2904D13EE0AA293CD0AF293AD0022071
:1002F000FFF757FF607B2022B4E71BE0BDE87040AA
:1003000001F0F2B8BDE8704001F00EB8BDE87040F1
:1003100001F0F6B8BDE8704001F03EB8BDE87040AD
:1003200001F034B8BDE8704001F0A8B8BDE87040F5
:1003300001F06CB8BDE8704001F0E6B8D3E90112F5
:10034000BDE8704001F02EB8D3E90112BDE870405D
:1003500001F010B9BDE8704001F0F2B8BDE870409E
:1003600000F0CABFBDE8704000F0F6BF20000020DA
:100370003002002055534243840000202DE9F84FFD
:100380000020ADF80000DFF834A14BF6BF7648F24C
:1003900080074A4D4A4C40F68F7848F60F7BDFF8CD
:1003A00024910AF1440A31E00888474A10F00F000E
:1003B000107034D0454901EB8001D1F8002CADF824
:1003C0000020BDF8002012040BD5D1F8002C02EA61
:1003D0000802C1F8002C3E4901EB800050F8040CE3
:1003E0008047BDF80000000610D53748374900782F
:1003F00001EB8001D1F8002C02EA0B02C1F8002CBD
:10040000344901EB800050F8040C8047DAF8000012
:100410004946A9F800000004C6D4BDE8F88F286852
:100420002080208800F030006080208800F4405058
:1004300020802868304080F4005080F0200038434D
:1004400028600888C006286815D400EA0B002860D8
:1004500000F040FB26E02188890401D580F400509B
:100460006188C90626D46188890601D580F02000FC
:1004700038432860D1E7ADF80000BDF80000000562
:1004800006D5286800EA0800286001F0E9F909E0CB
:10049000BDF800000004B9D5286800EA080028600B
:1004A00000F000FE286821883040C904D3D580F4CC
:1004B0008050D0E780F01000D5E70000005C0040DD
:1004C0001A0000208000002008000020005000409A
:1004D0006400002048000020810008480844D0F84B
:1004E000001C490409D5D0F8001C48F68F72114051
:1004F0004CF280021143C0F8001C704700500040CD
:10050000810008480844D0F8001C490609D5D0F8F5
:10051000001C48F68F72114048F2C0021143C0F827
:10052000001C704700500040810006480144D1F88B
:10053000000C48F68F62104048F280021043C1F868
:10054000000C7047005000402DE9F047DFF8948020
:10055000254F4FF03009D8F8001001F11005088A36
:100560000E7A08B9042E04D0AC88A04215D804260F
:1005700014E01E484168491C03D00726102038802B
:100580002BE01B4A002112681A4B120403EBD232F3
:100590005160A7F8009041601FE00226844200D914
:1005A0000446A968204688478246002000F050FA99
:1005B00001462246504601F0EFFB2146002001F0A3
:1005C000A3F82888001B2880688820446880A7F842
:1005D000009009494FF440500880D8F80000067296
:1005E000BDE8F0870C0000201C0000200000002067
:1005F000505C0040006000401A0000202DE9F047E8
:10060000224EDFF88C803027356835F8100FA96846
:10061000A9B100B3AC88844200D90446204688477B
:1006200081462888001B2880688820446880002034
:1006300000F0E2F901462246484600F057FD2888BE
:1006400048B114494FF4405008800021084601F099
:100650005BF8A8F800702888A988884201D3032095
:1006600001E020B1052031680872BDE8F0873168EB
:1006700006200872084900200968084A090402EBAC
:10068000D1314860A8F80070EFE700000C000020AE
:100690001C0000201A000020505C00400060004058
:1006A000F8B55E4C5E4D092620680027296842781F
:1006B000062A05D0AAB1082A4DD00A2A50D06BE0EC
:1006C0000278520668D18078012804D0022804D02C
:1006D000032804D060E0C96956E0096A54E0496A19
:1006E00052E04288B2BBC288022A55D102798ABB45
:1006F0000278530601D1838833B102F07F02012AC8
:1007000004D0022A0CD047E046493DE08A6940798E
:1007100000219047F0B92068807A0028F4D13BE0AE
:10072000417901F00F0001F070020B063E4901EB28
:100730008001D1F8001C03D5C1F30111090102E0C9
:10074000C1F301310903394B1B78834224D90AB91B
:100750000029D9D120E0007840061DD1344913E0AA
:10076000027802F07F02012A16D1827AA2B1428871
:1007700092B9027982B9C288012A0DD18A69407979
:100780000021904740B92B4931B1206847828161EF
:1007900000208847002006E0296820680969407821
:1007A0008847032813D021680A8AA2F57F43FF3BBC
:1007B0000BD002280ED06AB10878000627D5C88869
:1007C000009082420AD9088219E00E72F8BD2068B2
:1007D0000672F8BD4FF008000872F8BD0FD2286805
:1007E000154B90F82C00824201D25F6007E0B2FB0B
:1007F000F0F400FB142010B94FF0FF305860286867
:1008000090F82C008882BDE8F840FFF79DBE0320D9
:1008100008720A4900030880F8BD00000C0000209F
:1008200010000020311A000800500040F0000020A5
:10083000C5190008091A0008000000201A0000204D
:10084000704700F001BB00F033BB000070B50546F7
:100850004FF43026304600F059F8042811D1094CE5
:10086000206940F0020020616561206940F040008D
:100870002061304600F04AF8216941F6FD721140CE
:10088000216170BD0020024008490420CA68D207D7
:1008900001D001207047CA68520701D50220704775
:1008A000C968C906FBD5032070470000002002403C
:1008B0000248016941F08001016170470020024057
:1008C000F0B506464FF400570D46384600F01EF8C6
:1008D00004280CD1064C206940F0010020613580CD
:1008E000384600F013F82169BA1E11402161F0BDAD
:1008F00000200240034802494160034941607047BB
:100900002301674500200240AB89EFCD00B50346C7
:10091000FFF7BAFF03E000BFFFF7B6FF5B1E012839
:1009200003D0002B00D1052000BD002BF4D1FAE745
:1009300008B54FF4C050ADF8000003208DF8020058
:100940001C208DF803006946014800F003F808BD3B
:1009500000080140F0B5CA78002502F00F03D20666
:1009600001D58A7813430A784FF00F0E12F0FF0F6B
:100970004FF001021CD004680F8802FA05F63740D8
:10098000B74211D14FEA850C0EFA0CF724EA07079B
:1009900003FA0CF43C43CF78282F02D0482F02D022
:1009A00002E0466100E006616D1C082DE4D304609E
:1009B0000C88FF2C1ED944685FF0000606F108077A
:1009C00002FA07F50F882F40AF420FD14FEA860C8D
:1009D0000EFA0CF7BC4303FA0CF73C43CF78282FF0
:1009E00000D14561CF78482F00D10561761C082ED3
:1009F000E4D34460F0BD00000549096889B201EB09
:100A0000C000044901EB4000008980B2704700003B
:100A1000505C0040006000400549096889B201EB64
:100A2000C000044901EB40008089C0F30900704711
:100A3000505C004000600040044901EB8000D0F8A9
:100A4000000CC0F30130000370470000005000406C
:100A50000449096889B201EBC000034931F810006C
:100A600080B27047505C00400060004008B104480C
:100A7000704704490120096808820020704700007F
:100A8000840000200C0000200F4810B50168001DF4
:100A90000368001D0029026815D00C480C0A8170FB
:100AA00004710C0C8471090E01728372190A0173AE
:100AB000190C8173190E01748274110A0175110CDD
:100AC0008175110E017610BDE8F7FF1F2C00002084
:100AD000FEE7000010B5134C2068017A022904D00B
:100AE000042902D0062905D015E0FFF72DFD206866
:100AF000007A11E04178052909D10178490606D12B
:100B0000C07800F073FD08480068006A8047074815
:100B1000006880688047082021680872BDE810409E
:100B200000F0F6BA0C000020140000201000002095
:100B3000002000F013B8000008B1012070470649FA
:100B4000EE20086008394FF40070086008394FF44F
:100B5000EE30086000207047CC01002008B1012071
:100B600070470649EE20086008394FF400700860AD
:100B700008394FF4EE30086000207047CC010020A7
:100B800030B5002308B1012030BD06488414CD18CB
:100B9000054495F80054D5545B1CA342F7D30020BC
:100BA00030BD0000002000082DE9F04781462548AF
:100BB000002408444FEA902815460F4626464FEA7F
:100BC0008828FFF797FEB9F1000F30D11E4AB8050B
:100BD0004FF4007115D0285D2B19641C83F80002B6
:100BE0008C42F8D300203B18134493F800322B5466
:100BF000401C8842F7D34046FFF728FE04280BD05C
:100C000015E0381910442B1990F80006641C83F87D
:100C100000028C42F5D3EEE700244FF480672819D8
:100C2000018808EB0400FFF74BFE042805D00126DD
:100C3000FFF73EFE3046BDE8F087A41CBC42EED371
:100C4000F6E7000000240008002000080D4900B568
:100C500009680A7802F07F02212A08D1FE2806D10D
:100C6000488820B9888810B9C888012801D0022096
:100C700000BD0548886100204882FFF7F7FE00208C
:100C800000BD00000C0000206D0A0008014900F0C2
:100C9000ADBE000090000020014900F0A7BE00009A
:100CA0008800002005490968C978052901D9002074
:100CB0007047034A02EBC10100F098BE0C0000200F
:100CC000C800002009B9002800D0022070470000A9
:100CD0000F4910B509680A7802F07F02212A07D16E
:100CE000FF2805D1488818B9888808B9C88808B18C
:100CF000022010BD0120FFF703FC0220FFF7ECFBF0
:100D000005490448086005490020087010BD00002E
:100D10000C000020555342433002002020000020E8
:100D200070B530480025314985722F480968C0796F
:100D30004872284600F052FC4FF40071002000F089
:100D400009FD2021002000F0EDFC1821002000F01A
:100D500071FC274C002014F82C1F00F07BFC58215C
:100D6000002000F0C1FC0020FFF7DEFB002000F0B7
:100D7000A9FC0021012000F0EDFC9821012000F0E9
:100D8000B3FC2021012000F0CDFC0021012000F067
:100D900081FC0021022000F0DDFCD821022000F0BF
:100DA00049FC2178022000F055FC4FF4405102200C
:100DB00000F070FC0021022000F0B4FC217800203B
:100DC00000F048FC002000F07DFC002000F00EFC4C
:100DD000084901200860094907480860084805706B
:100DE00070BD0000D4010020E61E00080C000020A9
:100DF0009800002018010020555342433002002083
:100E0000200000207047704710B5FFF73DFE0548F1
:100E100000240068847200F09DF900F087FF02480A
:100E2000046010BD0C000020180100200448054992
:100E30000068884202D00220FFF7B3B97047000073
:100E40003002002055534243174B10B51878022842
:100E500019D04FF44054032820D0042801D005288D
:100E600021D1002018702146022000F013FC02203E
:100E7000FFF7E2FDB0F5805F15D12146BDE81040D7
:100E8000022000F007BC0948C17B28290BD1D3E917
:100E90000112407BBDE8104000F084BA012100201F
:100EA00000F0BAFCE9E710BD20000020300200206D
:100EB00070B5154C0220A4F14001E57B00F046FF1F
:100EC00012494880087818B1012805D0022006E0B0
:100ED000BDE87040FFF784B92A2D0DD00120FFF73F
:100EE00060F9607B2422052100F0B4FCBDE870406D
:100EF0000021022000F090BC8A68607B4968BDE850
:100F0000704000F037BB00003002002020000020BD
:100F1000094810B50068807A00280BD007490520E1
:100F200008600120FFF7ECFA0220FFF7D5FA044928
:100F30000020087010BD00000C00002018010020E7
:100F4000200000200149042008607047180100209B
:100F5000FEE770477047000070B50F23C478017832
:100F60000122F4B1144C2468457804F4E064C4F51B
:100F7000E064240AC4F10406E3408478B5401C40D0
:100F80002C4301F1E021230181F80034007800F0C6
:100F90001F018A404009800000F1E020C0F80021D4
:100FA00070BD01F01F0082404809800000F1E02080
:100FB000C0F8802170BD00000CED00E0024908433C
:100FC00002490860704700000000FA050CED00E0DF
:100FD00070B52F4D2868017844784A0606D001F094
:100FE0007F00012828D002282BD035E0092C06D01C
:100FF000052C07D0032C0ED0012C14D02CE000F0CF
:1010000061FD28E0C1787F292ED8817861BB818875
:1010100051BB807A27E0C17801291DD18088D8B9D9
:1010200000F06CFD17E0C178012915D1818899B9CC
:10103000407A80060AD40FE00B2C0DD100F0B4FDED
:1010400009E0012C02D0032C03D005E000F03CFCA9
:1010500001E000F065FD58B10E4920460968496974
:101060008847032802D018B108200DE009200BE0C2
:10107000094A062000211268084B120403EBD23201
:101080005160074A302111802968087270BD000044
:101090000C00002010000020505C00400060004068
:1010A0001C00002010B50F4C2068007A022811D0D7
:1010B00004280FD0032804D0052802D0072805D023
:1010C00008E0FFF79BFA2068007A04E00648006811
:1010D000C0688047082021680872BDE8104000F011
:1010E00017B800000C00002010000020064B521C16
:1010F000520803EB410105D031F8043B20F8023BD4
:10110000521EF9D170470000006000407047000097
:101110000C4810B590F82C10002000F09BFA0A48FB
:101120000068007A082802D0092809D006E007499B
:101130004FF480500880064910200880002010BD20
:10114000012010BD980000200C0000201A00002093
:101150001C0000200648012101600021054A0160B1
:10116000031D19604FF4E0511180016000207047A9
:10117000405C004018000020044A0029D16901D0D9
:10118000014300E08143D16170470000001002403C
:10119000044A0029916901D0014300E08143916133
:1011A000704700000010024010B5002000F00AF85F
:1011B0000121C805FFF7E0FF0121BDE81040042030
:1011C000FFF7E6BF0149C1F8D8007047000042426E
:1011D00070B5274C0646274D207810B1012808D05D
:1011E00028E055F8260041435043C4E9031001208C
:1011F0002070606848B32048E169402201448120A2
:1012000000F0B6FD606840386060E0694030E06141
:101210004021012000F078FA3021012000F082FA0C
:10122000E0684030E0602069403820611348816800
:10123000403981602069002806D16060E061104A71
:101240000321E0601170207070BD55F826300A4A05
:101250003046E168FFF794FC40220749812000F006
:1012600087FD55F82600403860604020CFE7000039
:101270009C010020C40100206002002050020020D8
:101280002000002070B5184C1A4454F82040A242A7
:101290000DD92A2902D10220FEF783FF0020FEF794
:1012A00080FF1249052221208A70087311E0114D38
:1012B0000F4C55F82000A2685843824211D02A29C9
:1012C0000DD00020FEF76DFF607B2422052100F089
:1012D000C1FA0021012000F09FFA002070BD022019
:1012E000F0E74FF0FF3070BDCC0100203501002049
:1012F00030020020C401002010B5FFF71DFC0028BB
:101300000ED008483A220221407B00F0A3FA0121C6
:10131000084600F081FABDE810400020FEF741BF0A
:1013200010BD00003002002009490A7CD20702D01B
:101330000848052106E038B106484B30C97C24290D
:1013400000D9242100F07EBC02482730F6E70000D7
:10135000300200202001002010B50B4CA06810B115
:10136000207B000601D5002000E00220FEF719FFD7
:10137000607B2022052100F06DFA0021BDE81040BD
:10138000012000F049BA0000300200200821014885
:1013900000F058BC250100200421014800F052BC97
:1013A0001C0100202DE9F041164D80461646287894
:1013B0000F4630B1022823D14046BDE8F041FFF787
:1013C00007BF114C13460A46607B2821FFF75AFFDE
:1013D000002815D0207B00064FF0020003D52870AE
:1013E00032463946E8E7FEF7DCFE607B2422052121
:1013F00000F030FABDE8F0410121084600F00CBAD7
:10140000BDE8F081200000203002002010B5044625
:10141000FFF792FB70B115483A220221407B00F0A1
:1014200019FA0121084600F0F7F9BDE81040002044
:10143000FEF7B7BE0E480F4950F82420521E100E7A
:101440000870100C4870100A88700B48CA7050F869
:101450002400020E0A71020C4A71020A8A71C871D4
:10146000BDE810400821034800F0ECBB300200202A
:10147000CC0100202D010020C401002010B504463D
:10148000FFF75AFB70B114483A220221407B00F06A
:10149000E1F90121084600F0BFF9BDE81040002045
:1014A000FEF77FBE0D480E4950F82420100E08713B
:1014B000100C4871100A88710A48CA7150F824004B
:1014C000020C4A72020A8A72C872BDE810400C21EE
:1014D000034800F0B7BB000030020020CC01002020
:1014E0008F010020C40100200348C17C122900D9CB
:1014F0001221024800F0A6BB300200203501002076
:101500000121002000F088B910B5FFF715FB70B17C
:101510000A483A220221407B00F09CF9012108464A
:1015200000F07AF9BDE810400020FEF73ABE012134
:10153000BDE81040002000F06FB90000300200202C
:1015400010B50B4CA06828B9207C400702D40121BB
:10155000002009E00220FEF724FE607B2422052102
:1015600000F078F900210120BDE8104000F054B9E6
:101570003002002070B5164D2B782BB1012B26D1EF
:10158000BDE8704000F01EBC124C13460A46607B5A
:101590002A21FFF777FE002819D0207B000608D407
:1015A00001202870BDE870404FF44051022000F047
:1015B00071B80020FEF7F5FD607B2422052100F0C4
:1015C00049F9BDE870400021012000F025B970BD47
:1015D000200000203002002070470000024920F067
:1015E0000700086070470000505C0040F0B50E49ED
:1015F0000E4D48F68F770B78002148F2800C0BE0F7
:10160000CEB205EB8604D4F8002C3A40324342EACD
:101610000C02C4F8002C491C9942F1D3044940F053
:1016200080000860F0BD0000F00000200050004085
:101630004C5C0040054A21F00101126892B202EBB5
:10164000C000034A02EB400081607047505C0040DC
:10165000006000400D4A12683E2992B202EBC000C1
:101660000B4A02EB400209D94809C90601D1401EC4
:1016700080B24FF4004141EA802004E04808C907E5
:1016800000D0401C8002106070470000505C004099
:101690000C60004082000A480244D2F8000C4BF66D
:1016A0008F731840CB0401D580F48050890401D594
:1016B00080F4005048F280010843C2F8000C7047E3
:1016C00000500040810007480144D1F8000C4BF65F
:1016D0008F72104080F4405048F280021043C1F8ED
:1016E000000C704700500040054A21F001011268CB
:1016F00092B202EBC000034A42F81010704700009B
:10170000505C004000600040044A126892B202EB54
:10171000C000034A02EB400041607047505C00404B
:101720000060004082000A480244D2F8000C48F6EB
:10173000BF731840CB0601D580F01000890601D593
:1017400080F0200048F280010843C2F8000C704786
:1017500000500040820005480244D2F8000C48F6D0
:101760008F1318400843C2F8000C70470050004027
:101770000CB50021264801910091026842F48032A4
:1017800002604FF4A063026802F400320092019AF2
:10179000521C0192009A12B9019A9A42F3D102683E
:1017A000920333D5012100911A490A6842F01002D0
:1017B0000A600A6822F003020A600A6842F0020224
:1017C0000A604168416041684160416841F480615C
:1017D0004160416821F47C114160416841F4E811A5
:1017E0004160016841F08071016001688901FCD5A8
:1017F000416821F003014160416841F0020141600C
:101800004168C1F381010229FAD10CBD00910CBDE0
:10181000001002400020024010B50C460B490A4A55
:101820000A6008730D22812000F0A2FA0848052101
:10183000002C017007D0042101703021BDE8104058
:101840000120FFF76FBF10BD5553425350020020D7
:10185000200000200148817002737047350100208C
:1018600070B516480068174D0004C10B14480144B8
:10187000098989B200EB41042868017A09290FD04F
:101880002178017061784170A088FEF7A4FC296876
:1018900048802089FEF79FFC29688880A089C8803D
:1018A000286801210172C08828B1FEF7F9FEBDE861
:1018B0007040FFF72DBCFFF78BFBF8E7505C004052
:1018C000006000400C0000202DE9F041384800681D
:1018D000017811F07F0102D0022905D066E0417A3B
:1018E00001F0DF0141724EE0418800295ED10179AB
:1018F000F1BB4179304D21F080040A0605EB8402EA
:101900002C4BD2F8002C03D5C2F30112120102E0D5
:10191000C2F3013212031E782346A64246D93AB3D7
:10192000807A28B308064FEA84000ED52844D0F800
:10193000000CC0F30110012821D11846FEF7E0FD8C
:1019400020463021FFF7EEFE19E04619D6F8000CCC
:10195000C0F30130012812D14BF68F7748F280088E
:10196000A4B11846FEF7B8FDD6F8000C384000E0E8
:101970001CE080F4405040EA0800C6F8000C0F4814
:101980000068406980470020BDE8F0810C4890F86D
:101990002C100020FFF75EFED5F8000C384080F4D4
:1019A000405040EA0800C5F8000CE8E70220EBE7E9
:1019B0000C000020F0000020005000401400002027
:1019C0009800002010B5074C30B107480068006847
:1019D000804720680A3010BD21680120088200205D
:1019E00010BD00000C00002014000020054A136800
:1019F0005A8A10B10868104470478888801A188283
:101A0000002070470C00002010B5074C30B107488B
:101A100000688068804720680C3010BD2168012074
:101A20000882002010BD00000C00002014000020DF
:101A3000204910B5096860B11F48002202800A7869
:101A400053060AD002F07F02012A16D0022A16D0CD
:101A500001E002200882002010BD497A8A0602783F
:101A600002D542F0020201E002F0FD0249060270D6
:101A7000D1B211D401F0FE0110E00F4810BD4A7937
:101A8000110713060D4A02EB9161D1F8001C07D52E
:101A9000C1F3011106E0017841F00101017003E09A
:101AA000C1F301310129F6D005480068006980477B
:101AB000E3E700000C000020000000200050004080
:101AC000140000200A4810B500680A4AC17852780C
:101AD000914203D882780AB982880AB1022010BDE7
:101AE00081720548006840688047002010BD0000F2
:101AF0000C000020F000002014000020064810B563
:101B00000068417A41F02001417204480068C069D0
:101B10008047002010BD00000C00002014000020B1
:101B200070B51D481D4D0368597921F0800005EB03
:101B300080000C06D0F8004C21F0800203D5C4F3DD
:101B40000114240102E0C4F301342403144D2D7860
:101B5000954210D95A8872B96CB19A7A5AB109066D
:101B6000D0F8001C48F2800207D548F6BF73194030
:101B700081F0100106E0022070BD4BF68F73194012
:101B800081F480511143C0F8001C06480068806948
:101B90008047002070BD00000C0000200050004075
:101BA000F00000201400002010B50E4C0E4A2068F2
:101BB0001268C17892694079904721688A7A22B187
:101BC00018B9087908B9887808B1022010BD07480B
:101BD0000068C068804720684179C172C17801738C
:101BE000002010BD0C000020100000201400002078
:101BF000704700000F4810B5016841F00101016015
:101C000041680D4A1140416001680C4A1140016071
:101C1000016821F480210160416821F4FE014160E6
:101C20004FF41F018160FFF7A3FD05494FF00060ED
:101C3000086010BD001002400000FFF8FFFFF6FE34
:101C400008ED00E010B50C460A460146812000F080
:101C50008FF830210120FFF765FD0549032008704A
:101C600004488168091B81600021017310BD0000D8
:101C700020000020500200207047704706480549A8
:101C8000022201600A72064A0449C0E9011208688A
:101C900000470000D40100200C0000209800002024
:101CA000F400002038B54FF4A060FFF787F9142046
:101CB0008DF8000002208DF8010000248DF802400C
:101CC00001208DF803006846FFF746F92A208DF8B9
:101CD00000008DF801406846FFF73EF938BD00006E
:101CE00070B50D4D28680D4C208020880C4E318831
:101CF0000840000401D5FEF741FB208831880840E8
:101D0000400507D54FF6FF30286006484068BDE81B
:101D10007040004770BD0000445C0040800000201F
:101D20001800002098000020FFF7DABF05490020C6
:101D3000086005494FF4044008800249091F086003
:101D400000207047445C00401800002070B500F08F
:101D50007F060D463046FEF75FFE04463046FEF72E
:101D60004BFE014622462846FFF7C0F9204670BDCB
:101D700070B500F07F0514460E462846FEF768FE53
:101D80000146A2B2304600F007F8A1B22846FFF79C
:101D9000BBFC002070BDFEE7094B10B5521C520879
:101DA00003EB41010AD000BF10F8013B521E10F8AE
:101DB000014B43EA042321F8043BF5D110BD000098
:101DC000006000402DE9F0412A4CA66827782A4B94
:101DD0000025403617B1012F08D03DE053F82070A0
:101DE00079435743C4E90517012121700021234F8E
:101DF000234A0CE017F801C0D4F808E002F80EC03E
:101E0000D4F808C00CF1010CC4F808C0491CD4F87F
:101E100008C0B445EED31B4E6269214637883A4468
:101E20006261D4F818C0ACEB0707A76153F8203003
:101E3000B7FBF3FC03FB1C7727B98D60D11A104A5E
:101E4000FEF7B2FE104832888168891A81604FF42B
:101E500040510220FFF71EFCA06918B10B48007822
:101E6000042805D1A56001210020FFF7D5FC2570CD
:101E7000BDE8F0819C010020C4010020F001002099
:101E800060020020220000205002002020000020DC
:101E900002E008C8121F08C1002AFAD17047704733
:101EA000002001E001C1121F002AFBD17047000091
:101EB000FFF77AF9FEF73CFDFEF73AFEFFF7F2FE78
:101EC000FFF7DCFE024801680529FCD1FEE70000AF
:101ED0001801002012010002000000408304205776
:101EE00000020102030109022000010100C03209C1
:101EF00004000002080650040705810240000007A4
:101F000005020240000004030904260353005400A4
:101F10004D006900630072006F0065006C00650091
:101F20006300740072006F006E006900630073004C
:101F30002603530054004D003300320020004D00B2
:101F40006100730073002000530074006F00720082
:101F500061006700650010035300540020004D002D
:101F60006100730073000000881F0008000000205B
:101F7000D40100004C01000838200008D4010020E2
:101F80008C080000A01E0008012C141A03531254E0
:101F9000124D123312321231D2301343080C18088A
:101FA000550F040A1547208113D41E3308121AE670
:101FB00008322013090E1408210D1B0805081A0702
:101FC00004134D0C1B08D1041AC5041A99041A8D68
:101FD000041AA50441324013061F3308041A0A08E4
:101FE00032265A3008222C33201A1A561032102367
:101FF00003012978DA11881A2D64690C5A459892E0
:1020000003E2066270B20A2C800202B72D53544DCF
:102010002001180E534420466C6173682044697394
:102020006B10ED312E302024BC4E414E2639242138
:08203000397B023C02000000B4
:04000005080000ED02
:00000001FF
